:100000006F00C009000000000000000000000000B8
:1000100000000000000000000000000000000000E0
:1000200000000000000000000000000000000000D0
:1000300000000000000000000000000000000000C0
:1000400000000000000000000000000000000000B0
:1000500000000000000000000000000000000000A0
:100060000000000000000000000000000000000090
:100070000000000000000000000000000000000080
:100080000000000000000000000000000000000070
:1000900000000000000000000000000037110020F8
:1000A00013010180970200009382C2F593E23200AF
:1000B00073905230970200009382C2017390123401
:1000C0007300203013000000130000001300000034
:1000D000371502401305850183250500930350035E
:1000E000B3E575002320B500371502401305C5019F
:1000F00083250500B7032000B3E575002320B50074
:100100003715014083250500B7F3FFFF9383F30004
:10011000B3F57500B7130000938303DDB3E57500F5
:100120002320B5003715024013050501832505007E
:10013000B7032000B3E575002320B50093C3F3FF98
:10014000B3F575002320B500375500401305454031
:1001500083150500930300FCB3F57500930380003D
:10016000B3E575002310B500375500401305C541B0
:1001700083150500B7F3FFFFB3F575009303800205
:10018000B3E575002310B500375500401305054051
:100190008315050093031000B3E575002310B50027
:1001A00037550040130505408315050093030040B3
:1001B000B3E575002310B500EF004022EF00802565
:1001C00093078007EF00403B93070000EF00002CEF
:1001D000971200009382C20D1303F00083C1020046
:1001E0009382120003C202009382120093870100DF
:1001F000EF00C0291303F3FF630A03009307020013
:10020000EF00C0281303F3FFE31A03FCEF00C02F35
:10021000EF000033EF00C070EF008075EF00100AB0
:10022000171700001307C76DB7040020938444001C
:10023000B72720209387070223A0F400938444006B
:1002400023A0F4009384440023A0F400938444008A
:1002500023A0F400B7040020938444008301070026
:10026000638A01002380340093841400130717006D
:100270006FF0DFFE13000000EF00806A37070020F8
:1002800013070725B7040020938444009384F400E7
:10029000EF00500DEF00D0479302F0003707002029
:1002A00013070725B704002093844400B384540047
:1002B000EF00500BEF00D0459382F2FFE3D002FE37
:1002C000EF00006693030008EF0090349383F3FF80
:1002D000E39C03FEB704002093844400B71110226E
:1002E0009381112023A0340093844400B70125009A
:1002F0009381611123A03400EF00D060EF00D0554E
:10030000EF000062B70400209384440093847400DB
:1003100013028000EF00501B1302F2FF9384F4FFDE
:10032000E31A02FEEF004055EF005045EF00405F3A
:10033000B7040020938444001302B000EF00D018EB
:100340001302F2FF93841400E31A02FEEF00C0527E
:10035000EF00005D3707002013070725B7040020D2
:10036000938444009384F400EF00C07FEF00503A80
:100370009302F0003707002013070725B704002079
:1003800093844400B3845400EF00C07DEF005038E4
:100390009382F2FFE3D002FEEF008058930300083F
:1003A000EF0010279383F3FFE39C03FEEF00D04A96
:1003B000EF000057B7040020938444009384740036
:1003C00013028000EF0050101302F2FF9384F4FF39
:1003D000E31A02FEEF00404A6F000000130141FFE4
:1003E000232011002322A1002324B100375500400F
:1003F000130585418315050093F52500E39805FE57
:100400008325810003254100832001001301C100E1
:10041000678000001301C1FE232011002322C100C8
:100420002324B1002326A100232871003755004062
:10043000130505408315050093E505502310B5000D
:1004400037550040130545418315050037550040D9
:10045000130585410316050013160601B3E5C50013
:10046000B703030093831300B3F57500E39A75FC9B
:10047000832301010325C100832581000326410058
:10048000832001001301410167800000130141FF37
:10049000232011002322A1002324B100375500405E
:1004A000130545418315050093F50508E38805FE0E
:1004B00037550040130505412300F50083258100D1
:1004C00003254100832001001301C1006780000063
:1004D000130141FF232011002322A1002324B10096
:1004E00037550040130505408315050093F5F5BF0A
:1004F0002310B500832581000325410083200100DE
:100500001301C10067800000130141FF2320110087
:100510002322A1002324B100375500401305454193
:100520008315050093F50508E38805FE8325810002
:1005300003254100832001001301C10067800000F2
:10054000130141FF232011002322A1002324B10025
:1005500037550040130505408315050093E5052038
:100560002310B5008325810003254100832001006D
:100570001301C100678000001301C1FE2320110098
:100580002322A1002324B1002326C10023287100C7
:1005900037550040130505412300F500375500404D
:1005A0001305454183150500375500401305854166
:1005B0000316050013160601B3E5C500B7030700CF
:1005C00093832308B3F57500E39A75FC8323010137
:1005D0000326C100832581000325410083200100FB
:1005E0001301410167800000130101FF2320110066
:1005F0002322A1002324B1002326C1003755004047
:100600001305454183150500375500401305854105
:100610000316050013160601B3E5C50037050020D3
:10062000130545002320B5000326C1008325810062
:1006300003254100832001001301010167800000B0
:10064000130141FF232011002322A1002324B10024
:1006500037550040130545418325050093F54500B6
:10066000E38805FE832581000325410083200100E6
:100670001301C100678000001301C1FE2320110097
:100680002322A1002324B100232661002328C100D6
:10069000370300201303430037550040130545413D
:1006A00083150500375500401305854103160500E5
:1006B00013160601B3E5C500B703030093832300B7
:1006C000B3F57500E39A75FC3755004013054541B5
:1006D0008315050037550040130585418315050036
:1006E000EFF01FDFEFF0DFE5375500401305454120
:1006F0008325050093F50504E38805FE3755004082
:1007000013050541830705002300F30003260101BB
:100710000323C100832581000325410083200100BC
:100720001301410167800000130141FE23201100E5
:100730002322A1002324B100232661002328710075
:10074000232A5100232CC1003755004013050541D1
:100750002300F5003755004013054541831505007A
:100760003755004013058541031605001316060191
:10077000B3E5C500B703030093832300B3F5750009
:10078000E39A75FC37550040130545418315050074
:10079000375500401305854183150500930320005C
:1007A00037550040130545418325050093F50504A1
:1007B000E38805FE37550040130505418307050012
:1007C0002300F300130313009382F2FF63F453003A
:1007D0006FF01FFD37550040130545418315050097
:1007E00093F50504E38805FE3755004013050541E0
:1007F000830705002300F30013031300EFF05FCD20
:10080000EFF01FD43755004013054541831505000F
:1008100093F50504E38805FE3755004013050541AF
:10082000830705002300F300032681018322410191
:10083000832301010323C100832581000325410097
:10084000832001001301C10167800000130181FFB3
:10085000232011002322610037B3320113035340D8
:100860001303F3FFE31E03FE032341008320010073
:100870001301810067800000130181FF2320110014
:100880002322610037B31E001303A3B91303F3FF40
:10089000E31E03FE032341008320010013018100B6
:1008A00067800000130181FF232011001303A07D46
:1008B0001303F3FFE31E03FE032341008320010023
:1008C0001301810067800000130181FF23201100C4
:1008D0002322610037530000130343E81303F3FF9F
:1008E000E31E03FE03234100832001001301810066
:1008F00067800000130181FF232011002322610083
:1009000037930100130343891303F3FFE31E03FE30
:100910000323410083200100130181006780000050
:100920001301C1FF23201100EF00C009930720022B
:10093000EFF0DFB593070000EFF05FB593073000ED
:10094000EFF0DFB493071002EFF05FB493070000FD
:10095000EFF0DFB39307F007EFF05FB3EFF0DFBA2C
:10096000EFF01FBE832001001301410067800000EB
:100970001301C1FF2320110093034000EFF01FA6D5
:10098000EFF05FA993078007EFF01FBF9307000404
:10099000EFF0DFAF9301000893F70700EFF01FAF10
:1009A0009381F1FFE39A01FE9383F3FFE39403FE47
:1009B000EFF09FB5EFF0DFB8832001001301410095
:1009C000678000001301C1FF23201100EFF01FA179
:1009D000EFF05FA493078007EFF01FBA93070000C2
:1009E000EFF0DFAA832001001301410067800000BF
:1009F0001301C1FF23201100EFF05F9EEFF09FA1D4
:100A000093078007EFF05FB793070004EFF01FA88C
:100A10008320010013014100678000001301C1FE23
:100A2000232811002326B1002324A10023228100C2
:100A300023206100370500201305450213054500FA
:100A400003040500B70500209385850323808500F6
:100A50001305150003040500B70500209385C503A1
:100A6000238085001305150003040500B705002049
:100A700093850504238085001305150003040500F4
:100A8000B7050020938545042380850013051500D4
:100A900003040500B70500209385C5042380850065
:100AA0000323010003244100032581008325C100A5
:100AB000832001011301410167800000130101FF40
:100AC000232011002322C100232431002326F1001A
:100AD000370600201306060593010008930700005F
:100AE0002320F6009381F1FF13064600E39A01FEEE
:100AF0008327C10083218100032641008320010058
:100B00001301010167800000130181FF2320110000
:100B10002322410013020020B7040020938404051F
:100B2000EFF0DF8BEFF01F8F93078007EFF0DFA46C
:100B300093070004EFF09F9583870400EFF01F9563
:100B4000938414001302F2FFE31802FEEFF0DF9B20
:100B5000EFF01F9F03224100832001001301810059
:100B600067800000130101FF232011002322C10030
:100B70002324D10023266100170600001306867483
:100B800083C604001303000263886600130606018F
:100B900013031300E39C66FE93010001EF00C00104
:100BA0000323C10083268100032641008320010026
:100BB00013010101678000001301C1FF2320110010
:100BC0008343060013061600EF008003938703009B
:100BD00093F7F70F2300F70013071700938703001D
:100BE00093D787002300F700130717009381F1FFC5
:100BF000E39801FC8320010013014100678000009D
:100C00001301C1FE23283100232641002324610063
:100C1000232251002320110013720200930180004F
:100C20003383030093720308639A020213122200B3
:100C3000131313009381F1FFE39601FE9303020067
:100C40008320010083224100032381000322C1008D
:100C5000832101011301410167800000131222006A
:100C60009302300033625200131313009381F1FF9B
:100C7000E39A01FA930302008320010083224100DA
:100C8000032381000322C1008321010113014101DB
:100C9000678000001301C1FF2320110083010600BB
:100CA000638E0100B7040020938444002380340045
:100CB000EF008001130616006FF05FFE8320010035
:100CC0001301410067800000130101FF2320110080
:100CD0002322C1002324D10023266100170600002F
:100CE0001306465E83C60400130300026388660091
:100CF0001306060113031300E39C66FEEFF00FEEEC
:100D0000EFF04FF193078007EFF01F879307000480
:100D1000EFF0CFF793010001EF004002EFF0CFFEBC
:100D2000EFF01F820323C1008326810003264100C8
:100D30008320010013010101678000001301C1FF3E
:100D4000232011008343060013061600EF00000362
:100D50009387030093F7F70FEFF04FF393870300A8
:100D600093D78700EFF08FF29381F1FFE39C01FCB2
:100D70008320010013014100678000001301C1FEC0
:100D8000232831002326410023246100232251001F
:100D900023201100137202009301800033830300AB
:100DA00093720308639A02021312220013131300B2
:100DB0009381F1FFE39601FE93030200832001007B
:100DC00083224100032381000322C100832101010A
:100DD00013014101678000001312220093023000CA
:100DE00033625200131313009381F1FFE39A01FA67
:100DF000930302008320010083224100032381002A
:100E00000322C10083210101130141016780000019
:100E1000130101FF2320110023225100232461002C
:100E20002326710037030020130303051303C31F98
:100E3000B7030020938303058322C3FF23205300BD
:100E40001303C3FFE35A73FE23200300EFF0DFCB4D
:100E5000EFF09FA78323C100032381008322410079
:100E6000832001001301010167800000130101FFCD
:100E70002320110023225100232461002326710026
:100E800037030020130303051303C31FB703002018
:100E9000938303058322C3FF232053001303C3FF5F
:100EA000E31A73FE8323C1000323810083224100E0
:100EB000832001001301010167800000130101FF7D
:100EC00023201100232251002324610023267100D6
:100ED00037030020130303251303C301B7030020C6
:100EE000938303258322C3FF232053001303C3FFEF
:100EF000E35A73FE232003008323C10003238100F0
:100F0000832241008320010013010101678000005A
:100F10001301C1FE232011002322A100232461001C
:100F2000232671002328B10013058000EFF01FF481
:100F300037030020130303251303C301B703002065
:100F4000938303058325030023A0B300EFF01FF76D
:100F5000EFF09FBBEFF05F971305F5FFE31805FC7B
:100F6000832501018323C100032381000325410060
:100F7000832001001301410167800000130101FF7C
:100F800023201100232241002324C1002326D10065
:100F9000370600201306460113066600B706002038
:100FA00093864600030206002380460013061600BF
:100FB00093861600030206002380460093861600DF
:100FC00013020002238046001306160093861600C3
:100FD00003020600238046001306160093861600BF
:100FE0000302060023804600938616001302D002F7
:100FF000238046001306160093861600030206009F
:10100000238046001306160093861600030206008E
:1010100023804600938616001302D00223804600E8
:10102000130616009386160003020600238046006E
:10103000130616009386160003020600238046005E
:101040008326C10003268100032241008320010082
:101050001301010167800000130101FF232011002B
:10106000232241002324C1002326D100370600207B
:1010700013064601B70600209386460003020600C9
:10108000238046001306160093861600030206000E
:1010900023804600938616001302A0032380460097
:1010A00013061600938616000302060023804600EE
:1010B00013061600938616000302060023804600DE
:1010C000938616001302A003238046001306160021
:1010D00093861600030206002380460013061600BE
:1010E0009386160003020600238046008326C10073
:1010F0000326810003224100832001001301010126
:1011000067800000130101FF232011002322C1008A
:10111000232431002326D100370600201306460081
:101120008301060093F1F10093E10103B70600206B
:1011300093864601238036008301060093F1010F58
:1011400093D1410093E1010393861600238036007A
:1011500093861600130616008301060093F1F10032
:1011600093E10103238036008301060093F1010F10
:1011700093D1410093E1010393861600238036004A
:1011800093861600130616008301060093F1F10002
:1011900093E10103238036008301060093F10103EC
:1011A00093D1410093E1010393861600238036001A
:1011B00093861600130616008301060093F1710052
:1011C000B3813100970200009382C26EB382320075
:1011D00083810200238036009382120093861600DA
:1011E00083810200238036009386160013061600C2
:1011F0008301060093F1010F93D1410093E10103B4
:10120000238036008301060093F1F10093E101038E
:101210009386160023803600938616001306160068
:101220008301060093F1010293D1410093E1010390
:10123000238036008301060093F1F10093E101035E
:101240009386160023803600938616001306160038
:101250008301060093F1010F93D1410093E1010353
:10126000238036008301060093F1F10093E101032E
:101270009386160023803600938616008326C100CD
:101280008321810003264100832001001301010115
:041290006780000073
:1012A000C10300000A00880F00004202A81F2001AD
:1012B00021007F220003DA028D14AF00000000003D
:1012C000000000000000000000000000000000001E
:1012D000000000330000000000000000F8003000B3
:1012E00000100000100C00000C06000006000000BA
:1012F00040C00004C07804047840043F40003F042C
:10130000000800FF7030002088001E18FC0021003B
:10131000F0E0000308181E1CF000212100001E0050
:1013200000701024F0002123080027218800191ED6
:10133000100016000E000000000000000000000079
:10134000000000000000E007181804200240000020
:101350000000024004201818E00700000000000010
:10136000400240028001F00F800140024002000074
:10137000000100010001F01F000100010001000058
:10138000008000B0007000000000000000000000BD
:101390000000000100010001000100010001000146
:1013A00000000030003000000000000000000000DD
:1013B00000000060001800068001600018000400B2
:1013C0000000E00F1010082008201010E00F0000AF
:1013D000000010201020F83F002000200000000036
:1013E000000070300828082408228821703000008E
:1013F000000030180820882088204811300E000096
:1014000000000007C00420241024F83F002400003E
:101410000000F8190821882088200811080E000013
:101420000000E00F1011882088201811000E000025
:10143000000038000800083FC8003800080000001D
:101440000000701C8822082108218822701C0000DE
:101450000000E0001031082208221011E00F000007
:10146000000000000000C030C0300000000000009C
:10147000000000000080806000000000000000000C
:101480000000000180024004200810100820000025
:101490004004400440044004400440044004000070
:1014A0000000082010102008400480020001000005
:1014B000000070004800083008360801F000000005
:1014C000C0073018C8272824E8231014E00B0000B8
:1014D0000020003CC0233802E00200270038002032
:1014E0000820F83F8820882088207011000E000016
:1014F000C00730180820082008200810380800000D
:101500000820F83F0820082008201010E00F0000F5
:101510000820F83F88208820E823082010180000C1
:101520000820F83F88208800E80308001000000029
:10153000C0073018082008200822381E00020000CA
:101540000820F83F0821000100010821F83F082089
:10155000000008200820F83F0820082000000000B4
:1015600000C0008008800880F87F080008000000A4
:101570000820F83F8820C0012826183808200000DD
:101580000820F83F08200020002000200030000044
:101590000820F83FF800003FF800F83F082000005E
:1015A0000820F83F3020C00000070818F83F080066
:1015B000E00F10100820082008201010E00F000095
:1015C0000820F83F0821080108010801F000000088
:1015D000E00F10180824082408381050E04F0000CD
:1015E0000820F83F882088008803880C703000208D
:1015F000000070388820082108210822381C0000CB
:10160000180008000820F83F082008001800000013
:101610000800F81F0820002000200820F81F0800FC
:101620000800780088070038000EC801380008005C
:10163000F803083C0007F8000007083CF803000026
:1016400008201830682C80038003682C183008208C
:1016500008003800C820003FC820380008000000FB
:101660001020083808260821C82038200818000053
:10167000000000000000FE7F024002400240000027
:1016800000000C003000C0010006003800C000005F
:101690000000024002400240FE7F00000000000007
:1016A000000000000400020002000200040000002C
:1016B000008000800080008000800080008000802A
:1016C0000000020002000400000000000000000012
:1016D000000000198024802280228022003F002008
:1016E0000800F83F0011802080200011000E00004B
:1016F0000000000E001180208020802000110000DA
:101700000000000E0011802080208810F83F00208B
:101710000000001F8022802280228022001300000F
:10172000000080208020F03F88208820880018005A
:101730000000006B8094809480948093806000000F
:101740000820F83F0021800080008020003F00201A
:10175000000080209820983F00200020000000001A
:10176000000000C0008080809880987F000000000A
:101770000820F83F00240002802D803080200000E7
:10178000000008200820F83F002000200000000092
:101790008020803F80208000803F80208000003FAC
:1017A0008020803F0021800080008020003F0020BA
:1017B0000000001F8020802080208020001F00006B
:1017C000808080FF00A1802080200011000E00009A
:1017D0000000000E00118020802080A080FF00808B
:1017E00080208020803F0021802080008001000038
:1017F000000000338024802480248024801900008D
:10180000000080008000E01F802080200000000099
:101810008000801F0020002000208010803F0020DA
:1018200080008001800E003000088006800180006A
:10183000800F8030000C8003000C8030800F80000F
:10184000000080208031002E800E8031802000003A
:1018500080808081808E007000188006800180006A
:10186000000080218030802C802280218030000088
:10187000000000000000000080007C3F02400240A9
:101880000000000000000000FFFF0000000000005A
:101890000000024002407C3F800000000000000089
:1018A0000000060001000100020002000400040024
:1018B00000004D6F547557655468467253615375F7
:1018C000000102030405060708091011121314157C
:1018D00016171819202122232425262728293031DC
:1018E0003233343536373839404142434445464730
:1018F00048495051525354555657585948656C6C85
:101900006F20576F726C640061646A20686F757233
:10191000200061646A206D696E200061646A206441
:101920006179200061646A206D6F6E7468200061C7
:10193000646A2079656172200061646A2064617460
:031940006520001F
:040000030000009C5D
:00000001FF
